:020000040800F2
:1000000020080020890100086B140008D1130008A3
:1000100069140008CF0200088F19000800000000D2
:10002000000000000000000000000000B117000800
:10003000D1020008000000006D140008B31700088A
:10004000A3010008A3010008A3010008A301000800
:10005000A3010008A3010008A3010008A3010008F0
:10006000A3010008A3010008A3010008A3010008E0
:10007000A3010008A3010008A3010008A3010008D0
:10008000A3010008A3010008A3010008A3010008C0
:10009000A3010008A3010008A3010008A3010008B0
:1000A000A3010008A3010008A3010008A3010008A0
:1000B000A3010008A3010008A3010008A301000890
:1000C000A3010008A3010008A3010008711400089F
:1000D000A3010008A3010008A3010008A301000870
:1000E000A3010008A3010008A301000800F002F822
:1000F00000F03AF80AA090E8000C82448344AAF188
:100100000107DA4501D100F02FF8AFF2090EBAE885
:100110000F0013F0010F18BFFB1A43F0010318473B
:100120001C1B00003C1B0000103A24BF78C878C19B
:10013000FAD8520724BF30C830C144BF04680C60ED
:10014000704700000023002400250026103A28BF35
:1001500078C1FBD8520728BF30C148BF0B60704739
:100160001FB51FBD10B510BD00F077F81146FFF7A1
:10017000F7FF01F04FFC00F095F803B4FFF7F2FF32
:1001800003BC00F09DF8000009488047094800477B
:10019000FEE7FEE7FEE7FEE7FEE7FEE7FEE7FEE737
:1001A000FEE7FEE704480549054A064B7047000094
:1001B00015180008ED00000820020020200800208B
:1001C000200400202004002010B5431C02E010F899
:1001D000011B71B18107FAD14FF0013202C88C1AAC
:1001E0008C4314EAC211F9D0C01A0A0603D0C01E0B
:1001F00010BDC01A10BD0A0401D0801E10BD090236
:10020000FCD0401E10BD4FF0000200B513469446CE
:100210009646203922BFA0E80C50A0E80C50B1F15E
:100220002001BFF4F7AF090728BFA0E80C5048BF72
:100230000CC05DF804EB890028BF40F8042B08BF10
:10024000704748BF20F8022B11F0804F18BF00F80C
:10025000012B7047704770477047754600F02CF8C7
:10026000AE4605006946534620F00700854618B0A3
:1002700020B5FFF797FFBDE820404FF000064FF094
:1002800000074FF000084FF0000B21F00701AC46CB
:10029000ACE8C009ACE8C009ACE8C009ACE8C009EA
:1002A0008D46704710B50446AFF300802046BDE888
:1002B0001040FFF762BF000000487047BC010020FB
:1002C00001491820ABBEFEE7260002007047FEE79A
:1002D0007047000010B500F02BF80E4B0E4A0F4C83
:1002E00000F036F8106940F00200106153611069A7
:1002F00040F04000106100F02BF8106920F002007F
:10030000106103F58063A342EAD3BDE8104000F01A
:1003100007B8000000C800080020024000000108E3
:100320000248016941F080010161704700200240EC
:1003300004480169090603D5034941600349416046
:10034000704700000020024023016745AB89EFCDD4
:100350000248C168C907FCD1704700000020024074
:10036000F0B50F460546FFF7E3FF0023104C19E0F8
:10037000F85C591C914204DAF918497840EA0126E0
:1003800001E040F47F46FFF7E3FF206940F0010001
:1003900020612E80FFF7DCFF206920F00100206142
:1003A0009B1CAD1C9342E3DBBDE8F040FFF7B8BFF8
:1003B0000020024010B590F821100024022903D03B
:1003C0000421816301243DE001680A6822F00E02E5
:1003D0000A6001680A6822F001020A601A4A01688C
:1003E000914201D1012121E0174A1432914201D1F9
:1003F00010211BE0144A2832914201D1891515E0E1
:10040000114A3C32914201D189140FE00E4A503218
:10041000914202D14FF4803108E00B4A643291429C
:1004200002D14FF4801101E04FF08071064A083A82
:100430005160012180F82110002180F82010416BCB
:1004400001B18847204610BD08000240064810B59B
:100450004FF0FF31016100220261C160C26000F013
:1004600035F9002010BD0000001002402DE9F84FC2
:10047000DFF8B8910024A9F1040B23460F2709F1F6
:10048000040AABF1040EC9E00125A5402A40AA42A6
:100490007DD1674ED1F804C0ACEB0608B44532D02C
:1004A00014DCBCF1030F3AD009DCBCF1000F2AD0F8
:1004B000BCF1010F1CD0BCF1020F31D11DE0BCF129
:1004C000110F17D0BCF1120F2AD119E0B8F5881F0F
:1004D00019D006DCB8F5803F15D0B8F5801F1FD1C4
:1004E00011E0B8F5001F0ED0B8F5041F18D10AE0CE
:1004F000CB6815E0CB681B1D12E0CB6808330FE01A
:10050000CB680C330CE08B682BB1012B4FF0080348
:1005100003D0456104E0042302E0056100E000230C
:10052000FF2A01D8064601E000F104064FEA8405DF
:1005300001D9A5F12005D6F8008007FA05FC28EAC4
:100540000C0803FA05F548EA0508C6F800804D686E
:10055000ED0062D5374DAE6946F00106AE61AD697A
:1005600024F0030605F001050095334D06EB050C5C
:10057000DCF80850A607360F07FA06F825EA080542
:10058000DFF8B880404503D14FF0000817E044E0A1
:10059000DFF8AC80404502D14FF001080FE0DFF8F2
:1005A000A480404502D14FF0020808E0DFF89880AF
:1005B000404502D14FF0030801E04FF0040808FA6B
:1005C00006F848EA0508CCF808804D68D9F80060BC
:1005D000ED024D4601D5164300E096432E604D686E
:1005E000DAF80060AD02554601D5164300E09643A7
:1005F0002E604D68DBF80060AD035D4601D5164303
:1006000000E096432E604D68DEF80060ED0375460D
:1006100001D5164300E096432E60641C0D682A46FF
:10062000E5407FF431AFBDE8F88F000008040140D9
:1006300000001110001002400000014000080140BD
:10064000000C014000100140001401400148806886
:10065000704700000C0000200248816802781144B5
:10066000816070470C000020074810B5016841F018
:1006700010010160032000F077F80F2000F006F869
:1006800000F026F8002010BD0020024070B50D4D8E
:1006900004464FF47A712878B1FBF0F00A490968F2
:1006A000B1FBF0F000F0C5FD48B9102C07D20022D4
:1006B0002146501E00F038F800206C6070BD01200B
:1006C00070BD00000C0000201800002070470000E2
:1006D0000C4808B5816941F001018161816901F02F
:1006E00001010091C16941F08051C161C06900F010
:1006F000805000900448416821F0E06141F00071B1
:10070000416008BD0010024000000140002809DBE4
:1007100000F01F02012191404009800000F1E0201B
:10072000C0F8001170470000F0B40E4B1B680C4677
:10073000C3F30223C3F10705042D00D90425191DB5
:10074000072901D2002300E0DB1E012606FA05F18D
:10075000491E214099409E40761E16403143F0BC10
:1007600001F016B90CED00E0064900F00702086838
:100770004FF6FF03184040EA0220034A1043086086
:10078000704700000CED00E00000FA052DE9F0478D
:100790000F46050061D0434E306800F00700B842B4
:1007A00009D2306820F0070038433060306800F02C
:1007B0000700B84251D128683B4C810712D5400749
:1007C00003D5606840F4E06060602878000703D5D6
:1007D000606840F4605060606068A96820F0F000D4
:1007E000084360602878C00728D06868012810D0C6
:1007F0002168022810D0890700292EDA616821F0CB
:10080000030101436160FFF721FF804641F288390F
:100810000DE021688903EFE78901EDE7FFF716FF97
:10082000A0EB0801494502D90320BDE8F0876068C4
:10083000696800F00C00B0EB810FEFD1306800F078
:100840000700B8420BD9306820F007003843306009
:10085000306800F00700B84201D00120E5E72878B1
:10086000400705D56068E96820F4E06008436060EF
:100870002878000706D56068296920F4605040EAAE
:10088000C100606000F0A6F86168084AC1F3031176
:10089000515CC8400649086006480068FFF7F6FE4C
:1008A0000020C2E70020024000100240221C000885
:1008B00018000020100000202DE9F041FFF7C6FECF
:1008C000304C0546206840F00100206005E000BF84
:1008D000FFF7BCFE401B022843D820688007F7D5ED
:1008E000206820F0F80040F080002060FFF7AEFEA6
:1008F00000250646656041F2883704E0FFF7A6FE52
:10090000801BB8422DD8606810F00C0FF6D11F493B
:100910001D4808601E480068FFF7B8FE10B10120AE
:10092000BDE8F081FFF792FE0646206820F0807057
:10093000206004E0FFF78AFE801B022811D820689F
:100940008001F7D46560FFF781FE0646206820F439
:100950001020206007E000BFFFF778FE801B6428AE
:1009600001D90320DCE720688003F5D4206820F457
:1009700080202060606A40F080706062A560002086
:10098000CEE700000010024000127A00180000209C
:10099000100000200448054900684968044AC1F372
:1009A0000221515CC840704718000020001002402E
:1009B000321C00080448054900684968044AC1F32C
:1009C000C221515CC840704718000020001002404E
:1009D000321C00080E4A51680E4801F00C03042B2B
:1009E00011D0082B0FD10C48C1F38343C903C05C5D
:1009F0000AD55168084AC1F34041921E515C054A2C
:100A00005043B0FBF1F07047044948437047000081
:100A10000010024000127A00121C000800093D007C
:100A20002DE9F84F040070D02078C04DC00749D0A0
:100A30006868C0F38100012807D06868C0F38100AE
:100A4000022809D16868C00306D52868800339D513
:100A500060680028E7D035E06068B0F5803F0BD0D3
:100A600010B1B0F5A02F11D0286820F48030286094
:100A7000286820F4802002E0286840F48030286054
:100A8000606890B1FFF7E2FD06460AE0286840F48E
:100A900080202860F0E700BFFFF7D8FD801B6428A6
:100AA00073D828688003F7D50CE0FFF7CFFD064622
:100AB00005E000BFFFF7CAFD801B6428F0D8286856
:100AC0008003F7D420789A4E80074FF001094FF049
:100AD000000839D5686810F00C0F07D06868C0F3BB
:100AE0008100022809D16868C00306D428688007FD
:100AF00014D52069012808D110E02069B0B1C6F8EA
:100B00000090FFF7A3FD074605E00AE1FFF79EFD11
:100B1000C01B0228C4D828688007F7D528686169F7
:100B200020F0F80040EAC10028600DE0C6F800801F
:100B3000FFF78CFD074604E0FFF788FDC01B022885
:100B400023D828688007F7D4207800072CD5794867
:100B5000A169D9B1C0F80090FFF778FD074604E01D
:100B6000FFF774FDC01B02280FD8686A8007F7D50D
:100B700071484FF4FA510068B0FBF1F0009000BFEB
:100B80000098411E0091FAD20EE080E0C0F800808B
:100B9000FFF75CFD074604E0FFF758FDC01B022885
:100BA00075D8686A8007F7D42078400760D5E8696F
:100BB0000027C00008D4E86940F08050E861E86987
:100BC000012700F0805000905C480168C90513D4EB
:100BD0000168834641F480710160FFF737FD82466A
:100BE00006E000BFFFF732FDA0EB0A0064284ED8F4
:100BF000DBF80000C005F5D5E06801280AD008B18F
:100C0000052813D0286A20F001002862286A20F005
:100C1000040002E0286A40F001002862E06841F226
:100C2000883B98B1FFF712FD82460BE0286A40F03E
:100C300004002862EEE700BFFFF708FDA0EB0A0101
:100C400059455AD8286A8007F6D50CE0FFF7FEFC14
:100C5000824605E0FFF7FAFCA0EB0A0159454CD8A3
:100C6000286A8007F6D41FB1E86920F08050E86157
:100C7000E06988B36968C1F38101022944D0022880
:100C8000C6F8608004D0FFF7E1FC044638E034E0A9
:100C9000FFF7DCFC074604E0FFF7D8FCC01B022886
:100CA0002BD828688001F7D4206AB0F5803F05D1A1
:100CB0006868A16820F4003008436860D4E908013E
:100CC0000843696821F4741108436860C6F86090AD
:100CD000FFF7BCFC044606E025E000BFFFF7B6FCCA
:100CE000001B022809D828688001F7D51BE000BF47
:100CF000FFF7ACFC001B022802D90320BDE8F88FE7
:100D000028688001F4D40EE00128F7D06868226AD0
:100D100000F48031914204D1616A00F4701088427D
:100D200001D00120EAE70020E8E7000000100240BF
:100D3000000042428004424218000020007000403F
:100D40007047000038B50446006842688168C943AE
:100D50004B0606D5CB0704D1D3435B0601D4216CE7
:100D600005E08B0708D4D3431B0605D4616C01B0A2
:100D70002046BDE8304008478B0601D54B0646D4D7
:100D8000D3439B0643D44B060AD494F85130032B2B
:100D90003ED0636D43F004036365C36883680093CA
:100DA000890609D4616D41F0010161658168009196
:100DB000016821F040010160606D002827D02068A3
:100DC000416821F0E0014160012084F85100900762
:100DD00022D02068416821F003014160104DE06C91
:100DE00040B14563E06CFFF7E5FA18B1606D40F083
:100DF00040006065A06C002809D04563A06CFFF737
:100E0000D9FA002803D0606D40F04000606538BD1D
:100E1000C1688068009038BD2046FFF791FF38BD5B
:100E20001916000870B5040009D0606A002540B1A9
:100E300025616561A56294F8510040B10CE0012084
:100E400070BD6068B0F5827FF4D0E561F2E784F8A8
:100E50005050204600F040F8022084F851002068ED
:100E6000016821F040010160A088218900F48270AE
:100E700001F404410843A18901F400610843217C85
:100E800001F002010843217D01F001010843218B9B
:100E900001F400710843217F01F03801084394F800
:100EA000201001F080010843218D01F40051084316
:100EB00021680860A069042101EA104021684860A7
:100EC0002068C16921F40061C1616565012084F871
:100ED0005100002070BD000010B586B000210091C7
:100EE00001910291039100681749884229D117485E
:100EF000816941F480518161816901F480510491DB
:100F0000816941F0040181618069114C00F00400A5
:100F10000490B020009069462046FFF7A7FA4020D1
:100F20000090022001900320039069462046FFF7BD
:100F30009DFA002211462320FFF7F6FB2320FFF73E
:100F4000E5FB06B010BD000000300140001002407B
:100F50000008014030B4134690F85120012A27D1EF
:100F6000846804221CB94568B5F5827F17D0E1B1C9
:100F7000DBB190F85050012D1AD0012580F8505067
:100F800080F851200022426581638387C387026312
:100F90008286C2864264C16861B116490BE080F85E
:100FA000512030BC0A4600F0F5B8012030BC704733
:100FB0000220FBE710490164B4F5004F09D1016834
:100FC0000B6823F040030B6001680B6823F4804337
:100FD0000B6001680B685B0603D40B6843F04003A9
:100FE0000B6080F850200068416841F0600141606A
:100FF0000020DBE7B9160008D916000810B5006814
:10100000074988420BD10748807800F04FFD054919
:101010000122BDE81040891C0348FFF79BBF10BDAB
:1010200000300140000000201C0000202DE9F84F96
:10103000984616468A460446FFF708FB814694F810
:10104000510001281ED1BAF1000F73D0002E71D0CB
:1010500094F85000012815D0012784F8507003201F
:1010600084F8510000256565C4F830A0A686E686A0
:10107000A563A587E58765642564A068B0F5004F82
:1010800003D00CE00220BDE8F88F2068016821F051
:10109000400101602068016841F4804101602068DE
:1010A0000168490603D4016841F040010160E0682D
:1010B000B0F5006F606803D048B3012E27D047E039
:1010C00008B1012E1FD1206B21680088C86006E09E
:1010D00020688168890709D5216B0988C160206B68
:1010E000801C2063E08E401EE0860CE0FFF7AEFA25
:1010F000A0EB0901414503D3B8F1FF3F03D035E030
:10110000B8F1000F32D0E08E0028E1D123E0206B4F
:1011100021680078087306E02068816889070AD58D
:10112000216B09780173206B401C2063E08E401E08
:10113000E0860DE02BE0FFF789FAA0EB09014145BD
:1011400003D3B8F1FF3F03D010E0B8F1000F0DD08A
:10115000E08E0028E0D14A464146204600F092FA4F
:1011600008B120206065A06830B109E084F85170B2
:1011700084F85050032086E72068C168806800909A
:1011800084F8517004F8505F60680028F3D00120A3
:1011900079E7000030B590F851404568012C06D041
:1011A000B5F5827F24D1856815BB042C20D1E9B127
:1011B000E2B1DBB190F85040012C19D0012480F845
:1011C000504090F85140042C02D0052480F8514042
:1011D0000024446501638386C38682638387C38753
:1011E000C16839B10E4901640E4906E0012030BDE5
:1011F000022030BD0C4901640C49416401680A6851
:10120000520603D40A6842F040020A6080F8504057
:101210000068416841F0E0014160002030BD0000FD
:101220007D140008DD140008AD1400080D15000839
:10123000704710B5401EB0F1807F01D3012010BD72
:101240004FF0E02460610F21601700F0A1FB002047
:10125000A06107202061002010BD70B5040004D0FB
:1012600094F84100002510B106E0012070BD84F81B
:101270004050204600F024F8242084F841002068E3
:10128000C16821F40051C160204600F0EBFA2068EB
:10129000016921F4904101612068416921F02A012E
:1012A00041612068C16841F40051C160656420203B
:1012B00084F8410084F842006563002070BD00009E
:1012C00030B585B000240094019402940394006822
:1012D0001449884224D11448816941F480418161D4
:1012E000816901F480410491816941F004018161C7
:1012F00080690E4D00F0040004904FF400700090DF
:10130000022001900320039069462846FFF7AEF8BB
:101310002815CDE90004694628460294FFF7A6F88F
:1013200005B030BD00380140001002400008014007
:101330002DE9F843044690F84100984616460D46BC
:10134000202802D00220BDE8F88385B17EB10020BC
:101350006064212084F84100FFF778F9A684814673
:10136000E684A0682027B0F5805F02D003E001206A
:10137000E9E7206910B12E4600250EE000260CE0BA
:101380008021204600F0CAFAA8B9C6B116F8010BB0
:1013900021684860E08C401EE084E08C4B464FF0B2
:1013A0000002CDF800800028EAD14FF0400120462D
:1013B00000F0B4FA40B184F841700320C3E735F877
:1013C000020BC0F30800E3E784F841700020BAE79D
:1013D000FEE710B5024600780C463A2801D00020FE
:1013E00010BD9178507800F005FB2070917950790C
:1013F00000F000FB03461179D07800F0FBFA43EAD5
:1014000000206080117AD07900F0F4FA2071002376
:1014100008E002EB4300817A407A00F0EBFAE11831
:101420005B1C487120789842F3DC012010BD00005D
:101430000C4810B50A490160002141608160C1601B
:101440000161416181610162416281620A21C1627F
:10145000FFF7E8FC002801D072B6FEE710BD0000DF
:10146000003001401C000020FEE7FEE7704700004E
:101470000148FFF767BC00001C0000200168C96834
:10148000826B1180816B891C8163C18F491EC1876A
:10149000C18F002909D101684A6822F040024A60E0
:1014A000C18E002901D100F049B870470168097B5D
:1014B000826B1170816B491C8163C18F491EC1878A
:1014C000C18F002909D101684A6822F060024A6090
:1014D000C18E002901D100F031B87047016B02685C
:1014E0000988D160016B891C0163C18E491EC186C8
:1014F000C18E002909D101684A6822F080024A6041
:10150000C18F002901D100F019B87047016B026842
:1015100009781173016B491C0163C18E491EC18694
:10152000C18E002909D101684A6822F080024A6010
:10153000C18F002901D100F001B8704738B50446C9
:10154000214845F6C0510068B0FBF1F064214843E2
:101550000090FFF77BF802462068416821F02001E7
:101560004160009888B1401E009020688068800724
:10157000F7D56421204600F085F818B1606D40F081
:1015800020006065A06828B108E0606D40F0200090
:101590006065EEE72068C16880680090616D012099
:1015A00029B184F851002046FFF7CAFB38BD94F8F2
:1015B000511084F851000429204602D0FFF738FE6C
:1015C00038BDFFF71BFD38BD1800002038B50446B4
:1015D0000068416821F060014160FFF737F802467A
:1015E0006421204600F020F818B1606D40F0200022
:1015F0006065A06818B92068C16880680090012003
:1016000084F85100606D0028204602D0FFF798FB57
:1016100038BDFFF7F3FC38BD10B5406A0021C18723
:10162000C186FFF78DFB10BDF8B5044640684FF446
:101630008273984217D1A0684FF48065B0F5004FCF
:1016400001D0A8420FD12068066826F04006066047
:101650006068984207D1A068A84204D100920B4666
:101660000022012103E000920B4600228021204647
:1016700000F042F8002804D0606D40F02000606562
:101680000320F8BDF8B515460E460B4600920446F9
:101690000122022100F030F840B9334600228021B7
:1016A0002046009500F028F8002804D0606D40F036
:1016B000200060650320F8BD0168C968826B118055
:1016C000816B891C8163C18F491EC187C18F00292D
:1016D00001D1FFF77BBF70470168097B826B1170F6
:1016E000816B491C8163C18F491EC187C18F00294D
:1016F00001D1FFF76BBF70472DE9F8431E469146B5
:1017000088460446089DFEF7A1FF401B351AFEF7E8
:101710009DFF074625480068C0F3CB30684338E09A
:10172000701C37D0FEF792FFC01BA84203D215B140
:10173000009860B32CE02068416821F0E00141602E
:101740006068B0F5827F0BD1A068B0F5004F02D081
:10175000B0F5806F04D12068016821F0400101607C
:10176000A06AB0F5005F09D12068016821F400513A
:1017700001602068016841F400510160012084F893
:101780005100002084F850000320BDE8F8830025B4
:10179000401E00902068816838EA010004D00021D2
:1017A0004945BDD10020F0E70121F9E718000020EC
:1017B0007047FEF751BF30B58FB028216846FEF75D
:1017C00022FD14210AA8FEF71EFD01210804CDE91F
:1017D00000100024029402250491CDE907504FF433
:1017E000E01009906846FFF71BF908B172B6FEE7F2
:1017F0000F20CDE90A054FF48060CDE90C400221AD
:101800000AA80E94FEF7C2FF002801D072B6FEE7C8
:101810000FB030BD704701680C3151E8002F22F441
:10182000907241E80023002BF5D10168143151E892
:10183000002F22F0010241E80023002BF5D1016BBB
:10184000012909D101680C3151E8002F22F0100262
:1018500041E80023002BF5D1202180F8421000211F
:101860000163704770B5044600680169E26821F4BD
:101870004051114301612169A0680843616908432F
:101880002168CA6841F20C639A430243CA60206827
:101890004169A26921F44071114341611E492068E8
:1018A000884202D1FFF786F801E0FFF773F800EBFA
:1018B000C00101EB0012606864218000B2FBF0F30C
:1018C000B3FBF1F36FF018067343B2FBF0F5B2FB14
:1018D000F0F605EB8305322303EB0515B5FBF1F5B7
:1018E000B6FBF1F605F0F00505EB0615B2FBF0F6D8
:1018F000B2FBF0F0B0FBF1F06FF01802504306EBD2
:10190000800003EB0010B0FBF1F0216800F00F0045
:101910002844886070BD0000003801402DE9F8437C
:10192000984617460D460446089E24E0701C22D0B7
:10193000FEF78CFEA0EB0800B0421AD8CEB12068AA
:10194000C168490717D5802D15D0402D13D00168E7
:10195000C94309070FD4016800254068009020465C
:10196000FFF759FF0820606484F840500120BDE86B
:10197000F8830320FBE72068006835EA000004D004
:101980000020B842D2D00020F1E70120F9E7FEE7BD
:101990000907090E002804DB00F1E02080F800149C
:1019A000704700F00F0000F1E02080F8141D704730
:1019B00010B50BA000F01CF9FEF77EFFFEF746FD08
:1019C0000A48016821F4E02101600948006880F3B9
:1019D00008880748001D0068BDE810400047000067
:1019E000456E746572204170700D0A0024ED00E0B0
:1019F00000C80008412801D3373800E03038C0B2B1
:101A0000412901D3373900E0303941EA0010C0B232
:101A10007047000008B5FEF727FEFFF7CCFE1B4815
:101A2000816941F020018161816901F0200100910B
:101A3000816941F004018161806900F00400009037
:101A4000FFF7F6FC134812490C2201604FF4E13114
:101A5000416000218160C160C0E904128161C161FF
:101A6000FFF7FBFB08B172B6FEE70A4801220A49FC
:101A70005838FFF76FFA09A000F0BAF8064CA41E18
:101A800060780028FCD0FFF793FFF9E700100240D0
:101A900000380140740000200200002053544D33F0
:101AA000322052454144590D0A00000070B5144CD3
:101AB000124E0025A1880A2805D0FF2918D270549B
:101AC000491CA18070BD75540EA000F091F80B4820
:101AD00000F08EF80DA000F08BF830783A2803D093
:101AE00000F06AF8A58070BD044800F011F8F9E72D
:101AF000A580BDE8704000F05FB80000BC00002089
:101B00000000002052583A20000000000D0A00009A
:101B100070B5C2B06946FFF75CFC80B19DF8040067
:101B2000174C012670B1042824D0012805D100F0FB
:101B300051F814A000F05CF8667042B070BD00F07F
:101B40003BF8FAE7BDF80250A06805431248284464
:101B5000B0F5605F0BD2207810B9FEF7BBFB2670A2
:101B60009DF8002028460DF10501FEF7F9FB00F075
:101B700015F8E2E7BDF8050040BA0004A060F6E7FA
:101B800000000020454F46202D3E204A554D502054
:101B90004150500D0A0000000038FFF708B506203C
:101BA0008DF800006423012269460248FFF73EFADF
:101BB00008BD00001C00002008B515208DF80000AD
:101BC0006423012269460248FFF730FA08BD00008D
:101BD0001C00002008B5EE208DF8000064230122CF
:101BE00069460248FFF722FA08BD00001C000020E9
:101BF00010B50446FEF7E8FA214682B2BDE810406F
:101C00004FF0FF330148FFF793BB00007400002042
:101C1000010202030405060708090A0B0C0D0E0F4A
:101C2000101000000000000000000102030406077D
:101C30000809000000000102030400005C1C000809
:101C4000000000201C00000028010008781C00088B
:101C50001C000020040800004401000800000000EF
:101C60000000000000000000010000001000000063
:081C70000000000000127A00E0
:04000005080000ED02
:00000001FF
